{
	"data": {
		"bytecode": {
			"linkReferences": {},
			"object": "6080604052348015600e575f80fd5b5061073a8061001c5f395ff3fe608060405234801561000f575f80fd5b5060043610610034575f3560e01c806339d515e2146100385780638f7d59b814610069575b5f80fd5b610052600480360381019061004d91906101dd565b610085565b604051610060929190610287565b60405180910390f35b610083600480360381019061007e91906103e1565b610139565b005b5f8181548110610093575f80fd5b905f5260205f2090600202015f91509050805f0154908060010180546100b890610468565b80601f01602080910402602001604051908101604052809291908181526020018280546100e490610468565b801561012f5780601f106101065761010080835404028352916020019161012f565b820191905f5260205f20905b81548152906001019060200180831161011257829003601f168201915b5050505050905082565b5f604051806040016040528084815260200183815250908060018154018082558091505060019003905f5260205f2090600202015f909190919091505f820151815f015560208201518160010190816101929190610635565b5050505050565b5f604051905090565b5f80fd5b5f80fd5b5f819050919050565b6101bc816101aa565b81146101c6575f80fd5b50565b5f813590506101d7816101b3565b92915050565b5f602082840312156101f2576101f16101a2565b5b5f6101ff848285016101c9565b91505092915050565b610211816101aa565b82525050565b5f81519050919050565b5f82825260208201905092915050565b8281835e5f83830152505050565b5f601f19601f8301169050919050565b5f61025982610217565b6102638185610221565b9350610273818560208601610231565b61027c8161023f565b840191505092915050565b5f60408201905061029a5f830185610208565b81810360208301526102ac818461024f565b90509392505050565b5f80fd5b5f80fd5b7f4e487b71000000000000000000000000000000000000000000000000000000005f52604160045260245ffd5b6102f38261023f565b810181811067ffffffffffffffff82111715610312576103116102bd565b5b80604052505050565b5f610324610199565b905061033082826102ea565b919050565b5f67ffffffffffffffff82111561034f5761034e6102bd565b5b6103588261023f565b9050602081019050919050565b828183375f83830152505050565b5f61038561038084610335565b61031b565b9050828152602081018484840111156103a1576103a06102b9565b5b6103ac848285610365565b509392505050565b5f82601f8301126103c8576103c76102b5565b5b81356103d8848260208601610373565b91505092915050565b5f80604083850312156103f7576103f66101a2565b5b5f610404858286016101c9565b925050602083013567ffffffffffffffff811115610425576104246101a6565b5b610431858286016103b4565b9150509250929050565b7f4e487b71000000000000000000000000000000000000000000000000000000005f52602260045260245ffd5b5f600282049050600182168061047f57607f821691505b6020821081036104925761049161043b565b5b50919050565b5f819050815f5260205f209050919050565b5f6020601f8301049050919050565b5f82821b905092915050565b5f600883026104f47fffffffffffffffffffffffffffffffffffffffffffffffffffffffffffffffff826104b9565b6104fe86836104b9565b95508019841693508086168417925050509392505050565b5f819050919050565b5f61053961053461052f846101aa565b610516565b6101aa565b9050919050565b5f819050919050565b6105528361051f565b61056661055e82610540565b8484546104c5565b825550505050565b5f90565b61057a61056e565b610585818484610549565b505050565b5b818110156105a85761059d5f82610572565b60018101905061058b565b5050565b601f8211156105ed576105be81610498565b6105c7846104aa565b810160208510156105d6578190505b6105ea6105e2856104aa565b83018261058a565b50505b505050565b5f82821c905092915050565b5f61060d5f19846008026105f2565b1980831691505092915050565b5f61062583836105fe565b9150826002028217905092915050565b61063e82610217565b67ffffffffffffffff811115610657576106566102bd565b5b6106618254610468565b61066c8282856105ac565b5f60209050601f83116001811461069d575f841561068b578287015190505b610695858261061a565b8655506106fc565b601f1984166106ab86610498565b5f5b828110156106d2578489015182556001820191506020850194506020810190506106ad565b868310156106ef57848901516106eb601f8916826105fe565b8355505b6001600288020188555050505b50505050505056fea2646970667358221220dd33c9c82962b3038e29e37bace48b31b1a0c01589efbc820610e44ca7f6093f64736f6c634300081a0033",
			"opcodes": "PUSH1 0x80 PUSH1 0x40 MSTORE CALLVALUE DUP1 ISZERO PUSH1 0xE JUMPI PUSH0 DUP1 REVERT JUMPDEST POP PUSH2 0x73A DUP1 PUSH2 0x1C PUSH0 CODECOPY PUSH0 RETURN INVALID PUSH1 0x80 PUSH1 0x40 MSTORE CALLVALUE DUP1 ISZERO PUSH2 0xF JUMPI PUSH0 DUP1 REVERT JUMPDEST POP PUSH1 0x4 CALLDATASIZE LT PUSH2 0x34 JUMPI PUSH0 CALLDATALOAD PUSH1 0xE0 SHR DUP1 PUSH4 0x39D515E2 EQ PUSH2 0x38 JUMPI DUP1 PUSH4 0x8F7D59B8 EQ PUSH2 0x69 JUMPI JUMPDEST PUSH0 DUP1 REVERT JUMPDEST PUSH2 0x52 PUSH1 0x4 DUP1 CALLDATASIZE SUB DUP2 ADD SWAP1 PUSH2 0x4D SWAP2 SWAP1 PUSH2 0x1DD JUMP JUMPDEST PUSH2 0x85 JUMP JUMPDEST PUSH1 0x40 MLOAD PUSH2 0x60 SWAP3 SWAP2 SWAP1 PUSH2 0x287 JUMP JUMPDEST PUSH1 0x40 MLOAD DUP1 SWAP2 SUB SWAP1 RETURN JUMPDEST PUSH2 0x83 PUSH1 0x4 DUP1 CALLDATASIZE SUB DUP2 ADD SWAP1 PUSH2 0x7E SWAP2 SWAP1 PUSH2 0x3E1 JUMP JUMPDEST PUSH2 0x139 JUMP JUMPDEST STOP JUMPDEST PUSH0 DUP2 DUP2 SLOAD DUP2 LT PUSH2 0x93 JUMPI PUSH0 DUP1 REVERT JUMPDEST SWAP1 PUSH0 MSTORE PUSH1 0x20 PUSH0 KECCAK256 SWAP1 PUSH1 0x2 MUL ADD PUSH0 SWAP2 POP SWAP1 POP DUP1 PUSH0 ADD SLOAD SWAP1 DUP1 PUSH1 0x1 ADD DUP1 SLOAD PUSH2 0xB8 SWAP1 PUSH2 0x468 JUMP JUMPDEST DUP1 PUSH1 0x1F ADD PUSH1 0x20 DUP1 SWAP2 DIV MUL PUSH1 0x20 ADD PUSH1 0x40 MLOAD SWAP1 DUP2 ADD PUSH1 0x40 MSTORE DUP1 SWAP3 SWAP2 SWAP1 DUP2 DUP2 MSTORE PUSH1 0x20 ADD DUP3 DUP1 SLOAD PUSH2 0xE4 SWAP1 PUSH2 0x468 JUMP JUMPDEST DUP1 ISZERO PUSH2 0x12F JUMPI DUP1 PUSH1 0x1F LT PUSH2 0x106 JUMPI PUSH2 0x100 DUP1 DUP4 SLOAD DIV MUL DUP4 MSTORE SWAP2 PUSH1 0x20 ADD SWAP2 PUSH2 0x12F JUMP JUMPDEST DUP3 ADD SWAP2 SWAP1 PUSH0 MSTORE PUSH1 0x20 PUSH0 KECCAK256 SWAP1 JUMPDEST DUP2 SLOAD DUP2 MSTORE SWAP1 PUSH1 0x1 ADD SWAP1 PUSH1 0x20 ADD DUP1 DUP4 GT PUSH2 0x112 JUMPI DUP3 SWAP1 SUB PUSH1 0x1F AND DUP3 ADD SWAP2 JUMPDEST POP POP POP POP POP SWAP1 POP DUP3 JUMP JUMPDEST PUSH0 PUSH1 0x40 MLOAD DUP1 PUSH1 0x40 ADD PUSH1 0x40 MSTORE DUP1 DUP5 DUP2 MSTORE PUSH1 0x20 ADD DUP4 DUP2 MSTORE POP SWAP1 DUP1 PUSH1 0x1 DUP2 SLOAD ADD DUP1 DUP3 SSTORE DUP1 SWAP2 POP POP PUSH1 0x1 SWAP1 SUB SWAP1 PUSH0 MSTORE PUSH1 0x20 PUSH0 KECCAK256 SWAP1 PUSH1 0x2 MUL ADD PUSH0 SWAP1 SWAP2 SWAP1 SWAP2 SWAP1 SWAP2 POP PUSH0 DUP3 ADD MLOAD DUP2 PUSH0 ADD SSTORE PUSH1 0x20 DUP3 ADD MLOAD DUP2 PUSH1 0x1 ADD SWAP1 DUP2 PUSH2 0x192 SWAP2 SWAP1 PUSH2 0x635 JUMP JUMPDEST POP POP POP POP POP JUMP JUMPDEST PUSH0 PUSH1 0x40 MLOAD SWAP1 POP SWAP1 JUMP JUMPDEST PUSH0 DUP1 REVERT JUMPDEST PUSH0 DUP1 REVERT JUMPDEST PUSH0 DUP2 SWAP1 POP SWAP2 SWAP1 POP JUMP JUMPDEST PUSH2 0x1BC DUP2 PUSH2 0x1AA JUMP JUMPDEST DUP2 EQ PUSH2 0x1C6 JUMPI PUSH0 DUP1 REVERT JUMPDEST POP JUMP JUMPDEST PUSH0 DUP2 CALLDATALOAD SWAP1 POP PUSH2 0x1D7 DUP2 PUSH2 0x1B3 JUMP JUMPDEST SWAP3 SWAP2 POP POP JUMP JUMPDEST PUSH0 PUSH1 0x20 DUP3 DUP5 SUB SLT ISZERO PUSH2 0x1F2 JUMPI PUSH2 0x1F1 PUSH2 0x1A2 JUMP JUMPDEST JUMPDEST PUSH0 PUSH2 0x1FF DUP5 DUP3 DUP6 ADD PUSH2 0x1C9 JUMP JUMPDEST SWAP2 POP POP SWAP3 SWAP2 POP POP JUMP JUMPDEST PUSH2 0x211 DUP2 PUSH2 0x1AA JUMP JUMPDEST DUP3 MSTORE POP POP JUMP JUMPDEST PUSH0 DUP2 MLOAD SWAP1 POP SWAP2 SWAP1 POP JUMP JUMPDEST PUSH0 DUP3 DUP3 MSTORE PUSH1 0x20 DUP3 ADD SWAP1 POP SWAP3 SWAP2 POP POP JUMP JUMPDEST DUP3 DUP2 DUP4 MCOPY PUSH0 DUP4 DUP4 ADD MSTORE POP POP POP JUMP JUMPDEST PUSH0 PUSH1 0x1F NOT PUSH1 0x1F DUP4 ADD AND SWAP1 POP SWAP2 SWAP1 POP JUMP JUMPDEST PUSH0 PUSH2 0x259 DUP3 PUSH2 0x217 JUMP JUMPDEST PUSH2 0x263 DUP2 DUP6 PUSH2 0x221 JUMP JUMPDEST SWAP4 POP PUSH2 0x273 DUP2 DUP6 PUSH1 0x20 DUP7 ADD PUSH2 0x231 JUMP JUMPDEST PUSH2 0x27C DUP2 PUSH2 0x23F JUMP JUMPDEST DUP5 ADD SWAP2 POP POP SWAP3 SWAP2 POP POP JUMP JUMPDEST PUSH0 PUSH1 0x40 DUP3 ADD SWAP1 POP PUSH2 0x29A PUSH0 DUP4 ADD DUP6 PUSH2 0x208 JUMP JUMPDEST DUP2 DUP2 SUB PUSH1 0x20 DUP4 ADD MSTORE PUSH2 0x2AC DUP2 DUP5 PUSH2 0x24F JUMP JUMPDEST SWAP1 POP SWAP4 SWAP3 POP POP POP JUMP JUMPDEST PUSH0 DUP1 REVERT JUMPDEST PUSH0 DUP1 REVERT JUMPDEST PUSH32 0x4E487B7100000000000000000000000000000000000000000000000000000000 PUSH0 MSTORE PUSH1 0x41 PUSH1 0x4 MSTORE PUSH1 0x24 PUSH0 REVERT JUMPDEST PUSH2 0x2F3 DUP3 PUSH2 0x23F JUMP JUMPDEST DUP2 ADD DUP2 DUP2 LT PUSH8 0xFFFFFFFFFFFFFFFF DUP3 GT OR ISZERO PUSH2 0x312 JUMPI PUSH2 0x311 PUSH2 0x2BD JUMP JUMPDEST JUMPDEST DUP1 PUSH1 0x40 MSTORE POP POP POP JUMP JUMPDEST PUSH0 PUSH2 0x324 PUSH2 0x199 JUMP JUMPDEST SWAP1 POP PUSH2 0x330 DUP3 DUP3 PUSH2 0x2EA JUMP JUMPDEST SWAP2 SWAP1 POP JUMP JUMPDEST PUSH0 PUSH8 0xFFFFFFFFFFFFFFFF DUP3 GT ISZERO PUSH2 0x34F JUMPI PUSH2 0x34E PUSH2 0x2BD JUMP JUMPDEST JUMPDEST PUSH2 0x358 DUP3 PUSH2 0x23F JUMP JUMPDEST SWAP1 POP PUSH1 0x20 DUP2 ADD SWAP1 POP SWAP2 SWAP1 POP JUMP JUMPDEST DUP3 DUP2 DUP4 CALLDATACOPY PUSH0 DUP4 DUP4 ADD MSTORE POP POP POP JUMP JUMPDEST PUSH0 PUSH2 0x385 PUSH2 0x380 DUP5 PUSH2 0x335 JUMP JUMPDEST PUSH2 0x31B JUMP JUMPDEST SWAP1 POP DUP3 DUP2 MSTORE PUSH1 0x20 DUP2 ADD DUP5 DUP5 DUP5 ADD GT ISZERO PUSH2 0x3A1 JUMPI PUSH2 0x3A0 PUSH2 0x2B9 JUMP JUMPDEST JUMPDEST PUSH2 0x3AC DUP5 DUP3 DUP6 PUSH2 0x365 JUMP JUMPDEST POP SWAP4 SWAP3 POP POP POP JUMP JUMPDEST PUSH0 DUP3 PUSH1 0x1F DUP4 ADD SLT PUSH2 0x3C8 JUMPI PUSH2 0x3C7 PUSH2 0x2B5 JUMP JUMPDEST JUMPDEST DUP2 CALLDATALOAD PUSH2 0x3D8 DUP5 DUP3 PUSH1 0x20 DUP7 ADD PUSH2 0x373 JUMP JUMPDEST SWAP2 POP POP SWAP3 SWAP2 POP POP JUMP JUMPDEST PUSH0 DUP1 PUSH1 0x40 DUP4 DUP6 SUB SLT ISZERO PUSH2 0x3F7 JUMPI PUSH2 0x3F6 PUSH2 0x1A2 JUMP JUMPDEST JUMPDEST PUSH0 PUSH2 0x404 DUP6 DUP3 DUP7 ADD PUSH2 0x1C9 JUMP JUMPDEST SWAP3 POP POP PUSH1 0x20 DUP4 ADD CALLDATALOAD PUSH8 0xFFFFFFFFFFFFFFFF DUP2 GT ISZERO PUSH2 0x425 JUMPI PUSH2 0x424 PUSH2 0x1A6 JUMP JUMPDEST JUMPDEST PUSH2 0x431 DUP6 DUP3 DUP7 ADD PUSH2 0x3B4 JUMP JUMPDEST SWAP2 POP POP SWAP3 POP SWAP3 SWAP1 POP JUMP JUMPDEST PUSH32 0x4E487B7100000000000000000000000000000000000000000000000000000000 PUSH0 MSTORE PUSH1 0x22 PUSH1 0x4 MSTORE PUSH1 0x24 PUSH0 REVERT JUMPDEST PUSH0 PUSH1 0x2 DUP3 DIV SWAP1 POP PUSH1 0x1 DUP3 AND DUP1 PUSH2 0x47F JUMPI PUSH1 0x7F DUP3 AND SWAP2 POP JUMPDEST PUSH1 0x20 DUP3 LT DUP2 SUB PUSH2 0x492 JUMPI PUSH2 0x491 PUSH2 0x43B JUMP JUMPDEST JUMPDEST POP SWAP2 SWAP1 POP JUMP JUMPDEST PUSH0 DUP2 SWAP1 POP DUP2 PUSH0 MSTORE PUSH1 0x20 PUSH0 KECCAK256 SWAP1 POP SWAP2 SWAP1 POP JUMP JUMPDEST PUSH0 PUSH1 0x20 PUSH1 0x1F DUP4 ADD DIV SWAP1 POP SWAP2 SWAP1 POP JUMP JUMPDEST PUSH0 DUP3 DUP3 SHL SWAP1 POP SWAP3 SWAP2 POP POP JUMP JUMPDEST PUSH0 PUSH1 0x8 DUP4 MUL PUSH2 0x4F4 PUSH32 0xFFFFFFFFFFFFFFFFFFFFFFFFFFFFFFFFFFFFFFFFFFFFFFFFFFFFFFFFFFFFFFFF DUP3 PUSH2 0x4B9 JUMP JUMPDEST PUSH2 0x4FE DUP7 DUP4 PUSH2 0x4B9 JUMP JUMPDEST SWAP6 POP DUP1 NOT DUP5 AND SWAP4 POP DUP1 DUP7 AND DUP5 OR SWAP3 POP POP POP SWAP4 SWAP3 POP POP POP JUMP JUMPDEST PUSH0 DUP2 SWAP1 POP SWAP2 SWAP1 POP JUMP JUMPDEST PUSH0 PUSH2 0x539 PUSH2 0x534 PUSH2 0x52F DUP5 PUSH2 0x1AA JUMP JUMPDEST PUSH2 0x516 JUMP JUMPDEST PUSH2 0x1AA JUMP JUMPDEST SWAP1 POP SWAP2 SWAP1 POP JUMP JUMPDEST PUSH0 DUP2 SWAP1 POP SWAP2 SWAP1 POP JUMP JUMPDEST PUSH2 0x552 DUP4 PUSH2 0x51F JUMP JUMPDEST PUSH2 0x566 PUSH2 0x55E DUP3 PUSH2 0x540 JUMP JUMPDEST DUP5 DUP5 SLOAD PUSH2 0x4C5 JUMP JUMPDEST DUP3 SSTORE POP POP POP POP JUMP JUMPDEST PUSH0 SWAP1 JUMP JUMPDEST PUSH2 0x57A PUSH2 0x56E JUMP JUMPDEST PUSH2 0x585 DUP2 DUP5 DUP5 PUSH2 0x549 JUMP JUMPDEST POP POP POP JUMP JUMPDEST JUMPDEST DUP2 DUP2 LT ISZERO PUSH2 0x5A8 JUMPI PUSH2 0x59D PUSH0 DUP3 PUSH2 0x572 JUMP JUMPDEST PUSH1 0x1 DUP2 ADD SWAP1 POP PUSH2 0x58B JUMP JUMPDEST POP POP JUMP JUMPDEST PUSH1 0x1F DUP3 GT ISZERO PUSH2 0x5ED JUMPI PUSH2 0x5BE DUP2 PUSH2 0x498 JUMP JUMPDEST PUSH2 0x5C7 DUP5 PUSH2 0x4AA JUMP JUMPDEST DUP2 ADD PUSH1 0x20 DUP6 LT ISZERO PUSH2 0x5D6 JUMPI DUP2 SWAP1 POP JUMPDEST PUSH2 0x5EA PUSH2 0x5E2 DUP6 PUSH2 0x4AA JUMP JUMPDEST DUP4 ADD DUP3 PUSH2 0x58A JUMP JUMPDEST POP POP JUMPDEST POP POP POP JUMP JUMPDEST PUSH0 DUP3 DUP3 SHR SWAP1 POP SWAP3 SWAP2 POP POP JUMP JUMPDEST PUSH0 PUSH2 0x60D PUSH0 NOT DUP5 PUSH1 0x8 MUL PUSH2 0x5F2 JUMP JUMPDEST NOT DUP1 DUP4 AND SWAP2 POP POP SWAP3 SWAP2 POP POP JUMP JUMPDEST PUSH0 PUSH2 0x625 DUP4 DUP4 PUSH2 0x5FE JUMP JUMPDEST SWAP2 POP DUP3 PUSH1 0x2 MUL DUP3 OR SWAP1 POP SWAP3 SWAP2 POP POP JUMP JUMPDEST PUSH2 0x63E DUP3 PUSH2 0x217 JUMP JUMPDEST PUSH8 0xFFFFFFFFFFFFFFFF DUP2 GT ISZERO PUSH2 0x657 JUMPI PUSH2 0x656 PUSH2 0x2BD JUMP JUMPDEST JUMPDEST PUSH2 0x661 DUP3 SLOAD PUSH2 0x468 JUMP JUMPDEST PUSH2 0x66C DUP3 DUP3 DUP6 PUSH2 0x5AC JUMP JUMPDEST PUSH0 PUSH1 0x20 SWAP1 POP PUSH1 0x1F DUP4 GT PUSH1 0x1 DUP2 EQ PUSH2 0x69D JUMPI PUSH0 DUP5 ISZERO PUSH2 0x68B JUMPI DUP3 DUP8 ADD MLOAD SWAP1 POP JUMPDEST PUSH2 0x695 DUP6 DUP3 PUSH2 0x61A JUMP JUMPDEST DUP7 SSTORE POP PUSH2 0x6FC JUMP JUMPDEST PUSH1 0x1F NOT DUP5 AND PUSH2 0x6AB DUP7 PUSH2 0x498 JUMP JUMPDEST PUSH0 JUMPDEST DUP3 DUP2 LT ISZERO PUSH2 0x6D2 JUMPI DUP5 DUP10 ADD MLOAD DUP3 SSTORE PUSH1 0x1 DUP3 ADD SWAP2 POP PUSH1 0x20 DUP6 ADD SWAP5 POP PUSH1 0x20 DUP2 ADD SWAP1 POP PUSH2 0x6AD JUMP JUMPDEST DUP7 DUP4 LT ISZERO PUSH2 0x6EF JUMPI DUP5 DUP10 ADD MLOAD PUSH2 0x6EB PUSH1 0x1F DUP10 AND DUP3 PUSH2 0x5FE JUMP JUMPDEST DUP4 SSTORE POP JUMPDEST PUSH1 0x1 PUSH1 0x2 DUP9 MUL ADD DUP9 SSTORE POP POP POP JUMPDEST POP POP POP POP POP POP JUMP INVALID LOG2 PUSH5 0x6970667358 0x22 SLT KECCAK256 0xDD CALLER 0xC9 0xC8 0x29 PUSH3 0xB3038E 0x29 0xE3 PUSH28 0xACE48B31B1A0C01589EFBC820610E44CA7F6093F64736F6C63430008 BYTE STOP CALLER "
		},
		"gasEstimates": {
			"creation": {
				"codeDepositCost": "370000",
				"executionCost": "403",
				"totalCost": "370403"
			},
			"external": {
				"addPeople(uint256,string)": "infinite",
				"peopleList(uint256)": "infinite"
			}
		},
		"methodIdentifiers": {
			"addPeople(uint256,string)": "8f7d59b8",
			"peopleList(uint256)": "39d515e2"
		}
	},
	"abi": [
		{
			"inputs": [
				{
					"internalType": "uint256",
					"name": "_id",
					"type": "uint256"
				},
				{
					"internalType": "string",
					"name": "_name",
					"type": "string"
				}
			],
			"name": "addPeople",
			"outputs": [],
			"stateMutability": "nonpayable",
			"type": "function"
		},
		{
			"inputs": [
				{
					"internalType": "uint256",
					"name": "",
					"type": "uint256"
				}
			],
			"name": "peopleList",
			"outputs": [
				{
					"internalType": "uint256",
					"name": "id",
					"type": "uint256"
				},
				{
					"internalType": "string",
					"name": "name",
					"type": "string"
				}
			],
			"stateMutability": "view",
			"type": "function"
		}
	]
}